{
  "_format": "hh-sol-artifact-1",
  "contractName": "CertificateStorage",
  "sourceName": "contracts/Certificate.sol",
  "abi": [
    {
      "anonymous": false,
      "inputs": [
        {
          "indexed": true,
          "internalType": "bytes32",
          "name": "certificateId",
          "type": "bytes32"
        },
        {
          "indexed": false,
          "internalType": "string",
          "name": "recipientName",
          "type": "string"
        },
        {
          "indexed": false,
          "internalType": "string",
          "name": "courseName",
          "type": "string"
        },
        {
          "indexed": false,
          "internalType": "string",
          "name": "courseCode",
          "type": "string"
        },
        {
          "indexed": false,
          "internalType": "uint256",
          "name": "issueDate",
          "type": "uint256"
        },
        {
          "indexed": false,
          "internalType": "string",
          "name": "ipfsCID",
          "type": "string"
        },
        {
          "indexed": false,
          "internalType": "address",
          "name": "issuer",
          "type": "address"
        }
      ],
      "name": "CertificateAdded",
      "type": "event"
    },
    {
      "inputs": [
        {
          "internalType": "string",
          "name": "recipientName",
          "type": "string"
        },
        {
          "internalType": "string",
          "name": "courseName",
          "type": "string"
        },
        {
          "internalType": "string",
          "name": "courseCode",
          "type": "string"
        },
        {
          "internalType": "uint256",
          "name": "issueDate",
          "type": "uint256"
        },
        {
          "internalType": "string",
          "name": "ipfsCID",
          "type": "string"
        }
      ],
      "name": "addCertificate",
      "outputs": [],
      "stateMutability": "nonpayable",
      "type": "function"
    },
    {
      "inputs": [
        {
          "internalType": "uint256",
          "name": "",
          "type": "uint256"
        }
      ],
      "name": "certificateIds",
      "outputs": [
        {
          "internalType": "bytes32",
          "name": "",
          "type": "bytes32"
        }
      ],
      "stateMutability": "view",
      "type": "function"
    },
    {
      "inputs": [
        {
          "internalType": "string",
          "name": "",
          "type": "string"
        }
      ],
      "name": "certificateIdsByCourseCode",
      "outputs": [
        {
          "internalType": "bytes32",
          "name": "",
          "type": "bytes32"
        }
      ],
      "stateMutability": "view",
      "type": "function"
    },
    {
      "inputs": [
        {
          "internalType": "bytes32",
          "name": "",
          "type": "bytes32"
        }
      ],
      "name": "certificates",
      "outputs": [
        {
          "internalType": "string",
          "name": "recipientName",
          "type": "string"
        },
        {
          "internalType": "string",
          "name": "courseName",
          "type": "string"
        },
        {
          "internalType": "string",
          "name": "courseCode",
          "type": "string"
        },
        {
          "internalType": "uint256",
          "name": "issueDate",
          "type": "uint256"
        },
        {
          "internalType": "string",
          "name": "ipfsCID",
          "type": "string"
        },
        {
          "internalType": "address",
          "name": "issuer",
          "type": "address"
        }
      ],
      "stateMutability": "view",
      "type": "function"
    },
    {
      "inputs": [],
      "name": "getAllCertificateIds",
      "outputs": [
        {
          "internalType": "bytes32[]",
          "name": "",
          "type": "bytes32[]"
        }
      ],
      "stateMutability": "view",
      "type": "function"
    },
    {
      "inputs": [
        {
          "internalType": "string",
          "name": "courseCode",
          "type": "string"
        }
      ],
      "name": "getIpfsCIDByCourseCode",
      "outputs": [
        {
          "internalType": "string",
          "name": "",
          "type": "string"
        }
      ],
      "stateMutability": "view",
      "type": "function"
    },
    {
      "inputs": [
        {
          "internalType": "string",
          "name": "ipfsCID",
          "type": "string"
        }
      ],
      "name": "verifyCertificateByCID",
      "outputs": [
        {
          "internalType": "bool",
          "name": "",
          "type": "bool"
        }
      ],
      "stateMutability": "view",
      "type": "function"
    },
    {
      "inputs": [
        {
          "internalType": "string",
          "name": "recipientName",
          "type": "string"
        },
        {
          "internalType": "string",
          "name": "courseName",
          "type": "string"
        },
        {
          "internalType": "string",
          "name": "courseCode",
          "type": "string"
        },
        {
          "internalType": "uint256",
          "name": "issueDate",
          "type": "uint256"
        }
      ],
      "name": "verifyCertificateByInfo",
      "outputs": [
        {
          "internalType": "string",
          "name": "",
          "type": "string"
        }
      ],
      "stateMutability": "view",
      "type": "function"
    }
  ],
  "bytecode": "0x6080604052348015600f57600080fd5b506119798061001f6000396000f3fe608060405234801561001057600080fd5b50600436106100885760003560e01c80637fbf4deb1161005b5780637fbf4deb1461013e5780638fa44e151461016e578063aeb342a81461018c578063b1dc626b146101bc57610088565b80630a1bb2111461008d5780630f9c774d146100a95780633772e8d7146100d9578063742f068814610109575b600080fd5b6100a760048036038101906100a29190610f7b565b6101ec565b005b6100c360048036038101906100be9190611066565b610458565b6040516100d091906110ac565b60405180910390f35b6100f360048036038101906100ee91906110c7565b61047c565b60405161010091906110ac565b60405180910390f35b610123600480360381019061011e919061113c565b6104aa565b60405161013596959493929190611238565b60405180910390f35b610158600480360381019061015391906110c7565b610726565b60405161016591906112b5565b60405180910390f35b610176610895565b6040516101839190611395565b60405180910390f35b6101a660048036038101906101a191906110c7565b6108ed565b6040516101b391906113d2565b60405180910390f35b6101d660048036038101906101d191906113ed565b610c6b565b6040516101e391906112b5565b60405180910390f35b6000858585856040516020016102059493929190611505565b604051602081830303815290604052805190602001209050600073ffffffffffffffffffffffffffffffffffffffff1660008083815260200190815260200160002060050160009054906101000a900473ffffffffffffffffffffffffffffffffffffffff1673ffffffffffffffffffffffffffffffffffffffff16146102c1576040517f08c379a00000000000000000000000000000000000000000000000000000000081526004016102b890611593565b60405180910390fd5b6040518060c001604052808781526020018681526020018581526020018481526020018381526020013373ffffffffffffffffffffffffffffffffffffffff16815250600080838152602001908152602001600020600082015181600001908161032b91906117bf565b50602082015181600101908161034191906117bf565b50604082015181600201908161035791906117bf565b5060608201518160030155608082015181600401908161037791906117bf565b5060a08201518160050160006101000a81548173ffffffffffffffffffffffffffffffffffffffff021916908373ffffffffffffffffffffffffffffffffffffffff1602179055509050506001819080600181540180825580915050600190039060005260206000200160009091909190915055806002856040516103fc9190611891565b908152602001604051809103902081905550807f1d9c6fba4eb2f9e8e07cba8767963f54e34a7ed0d2564f48691326b296e5f77087878787873360405161044896959493929190611238565b60405180910390a2505050505050565b6001818154811061046857600080fd5b906000526020600020016000915090505481565b6002818051602081018201805184825260208301602085012081835280955050505050506000915090505481565b60006020528060005260406000206000915090508060000180546104cd906115e2565b80601f01602080910402602001604051908101604052809291908181526020018280546104f9906115e2565b80156105465780601f1061051b57610100808354040283529160200191610546565b820191906000526020600020905b81548152906001019060200180831161052957829003601f168201915b50505050509080600101805461055b906115e2565b80601f0160208091040260200160405190810160405280929190818152602001828054610587906115e2565b80156105d45780601f106105a9576101008083540402835291602001916105d4565b820191906000526020600020905b8154815290600101906020018083116105b757829003601f168201915b5050505050908060020180546105e9906115e2565b80601f0160208091040260200160405190810160405280929190818152602001828054610615906115e2565b80156106625780601f1061063757610100808354040283529160200191610662565b820191906000526020600020905b81548152906001019060200180831161064557829003601f168201915b50505050509080600301549080600401805461067d906115e2565b80601f01602080910402602001604051908101604052809291908181526020018280546106a9906115e2565b80156106f65780601f106106cb576101008083540402835291602001916106f6565b820191906000526020600020905b8154815290600101906020018083116106d957829003601f168201915b5050505050908060050160009054906101000a900473ffffffffffffffffffffffffffffffffffffffff16905086565b6060600060028360405161073a9190611891565b9081526020016040518091039020549050600073ffffffffffffffffffffffffffffffffffffffff1660008083815260200190815260200160002060050160009054906101000a900473ffffffffffffffffffffffffffffffffffffffff1673ffffffffffffffffffffffffffffffffffffffff16036107ef576040517f08c379a00000000000000000000000000000000000000000000000000000000081526004016107e6906118f4565b60405180910390fd5b600080828152602001908152602001600020600401805461080f906115e2565b80601f016020809104026020016040519081016040528092919081815260200182805461083b906115e2565b80156108885780601f1061085d57610100808354040283529160200191610888565b820191906000526020600020905b81548152906001019060200180831161086b57829003601f168201915b5050505050915050919050565b606060018054806020026020016040519081016040528092919081815260200182805480156108e357602002820191906000526020600020905b8154815260200190600101908083116108cf575b5050505050905090565b600080600090505b600180549050811015610c605760006001828154811061091857610917611914565b5b9060005260206000200154905060008060008381526020019081526020016000206040518060c0016040529081600082018054610954906115e2565b80601f0160208091040260200160405190810160405280929190818152602001828054610980906115e2565b80156109cd5780601f106109a2576101008083540402835291602001916109cd565b820191906000526020600020905b8154815290600101906020018083116109b057829003601f168201915b505050505081526020016001820180546109e6906115e2565b80601f0160208091040260200160405190810160405280929190818152602001828054610a12906115e2565b8015610a5f5780601f10610a3457610100808354040283529160200191610a5f565b820191906000526020600020905b815481529060010190602001808311610a4257829003601f168201915b50505050508152602001600282018054610a78906115e2565b80601f0160208091040260200160405190810160405280929190818152602001828054610aa4906115e2565b8015610af15780601f10610ac657610100808354040283529160200191610af1565b820191906000526020600020905b815481529060010190602001808311610ad457829003601f168201915b5050505050815260200160038201548152602001600482018054610b14906115e2565b80601f0160208091040260200160405190810160405280929190818152602001828054610b40906115e2565b8015610b8d5780601f10610b6257610100808354040283529160200191610b8d565b820191906000526020600020905b815481529060010190602001808311610b7057829003601f168201915b505050505081526020016005820160009054906101000a900473ffffffffffffffffffffffffffffffffffffffff1673ffffffffffffffffffffffffffffffffffffffff1673ffffffffffffffffffffffffffffffffffffffff1681525050905084604051602001610bff9190611891565b604051602081830303815290604052805190602001208160800151604051602001610c2a9190611891565b6040516020818303038152906040528051906020012003610c515760019350505050610c66565b505080806001019150506108f5565b50600090505b919050565b6060600085858585604051602001610c869493929190611505565b604051602081830303815290604052805190602001209050600073ffffffffffffffffffffffffffffffffffffffff1660008083815260200190815260200160002060050160009054906101000a900473ffffffffffffffffffffffffffffffffffffffff1673ffffffffffffffffffffffffffffffffffffffff1603610d42576040517f08c379a0000000000000000000000000000000000000000000000000000000008152600401610d39906118f4565b60405180910390fd5b6000808281526020019081526020016000206004018054610d62906115e2565b80601f0160208091040260200160405190810160405280929190818152602001828054610d8e906115e2565b8015610ddb5780601f10610db057610100808354040283529160200191610ddb565b820191906000526020600020905b815481529060010190602001808311610dbe57829003601f168201915b5050505050915050949350505050565b6000604051905090565b600080fd5b600080fd5b600080fd5b600080fd5b6000601f19601f8301169050919050565b7f4e487b7100000000000000000000000000000000000000000000000000000000600052604160045260246000fd5b610e5282610e09565b810181811067ffffffffffffffff82111715610e7157610e70610e1a565b5b80604052505050565b6000610e84610deb565b9050610e908282610e49565b919050565b600067ffffffffffffffff821115610eb057610eaf610e1a565b5b610eb982610e09565b9050602081019050919050565b82818337600083830152505050565b6000610ee8610ee384610e95565b610e7a565b905082815260208101848484011115610f0457610f03610e04565b5b610f0f848285610ec6565b509392505050565b600082601f830112610f2c57610f2b610dff565b5b8135610f3c848260208601610ed5565b91505092915050565b6000819050919050565b610f5881610f45565b8114610f6357600080fd5b50565b600081359050610f7581610f4f565b92915050565b600080600080600060a08688031215610f9757610f96610df5565b5b600086013567ffffffffffffffff811115610fb557610fb4610dfa565b5b610fc188828901610f17565b955050602086013567ffffffffffffffff811115610fe257610fe1610dfa565b5b610fee88828901610f17565b945050604086013567ffffffffffffffff81111561100f5761100e610dfa565b5b61101b88828901610f17565b935050606061102c88828901610f66565b925050608086013567ffffffffffffffff81111561104d5761104c610dfa565b5b61105988828901610f17565b9150509295509295909350565b60006020828403121561107c5761107b610df5565b5b600061108a84828501610f66565b91505092915050565b6000819050919050565b6110a681611093565b82525050565b60006020820190506110c1600083018461109d565b92915050565b6000602082840312156110dd576110dc610df5565b5b600082013567ffffffffffffffff8111156110fb576110fa610dfa565b5b61110784828501610f17565b91505092915050565b61111981611093565b811461112457600080fd5b50565b60008135905061113681611110565b92915050565b60006020828403121561115257611151610df5565b5b600061116084828501611127565b91505092915050565b600081519050919050565b600082825260208201905092915050565b60005b838110156111a3578082015181840152602081019050611188565b60008484015250505050565b60006111ba82611169565b6111c48185611174565b93506111d4818560208601611185565b6111dd81610e09565b840191505092915050565b6111f181610f45565b82525050565b600073ffffffffffffffffffffffffffffffffffffffff82169050919050565b6000611222826111f7565b9050919050565b61123281611217565b82525050565b600060c082019050818103600083015261125281896111af565b9050818103602083015261126681886111af565b9050818103604083015261127a81876111af565b905061128960608301866111e8565b818103608083015261129b81856111af565b90506112aa60a0830184611229565b979650505050505050565b600060208201905081810360008301526112cf81846111af565b905092915050565b600081519050919050565b600082825260208201905092915050565b6000819050602082019050919050565b61130c81611093565b82525050565b600061131e8383611303565b60208301905092915050565b6000602082019050919050565b6000611342826112d7565b61134c81856112e2565b9350611357836112f3565b8060005b8381101561138857815161136f8882611312565b975061137a8361132a565b92505060018101905061135b565b5085935050505092915050565b600060208201905081810360008301526113af8184611337565b905092915050565b60008115159050919050565b6113cc816113b7565b82525050565b60006020820190506113e760008301846113c3565b92915050565b6000806000806080858703121561140757611406610df5565b5b600085013567ffffffffffffffff81111561142557611424610dfa565b5b61143187828801610f17565b945050602085013567ffffffffffffffff81111561145257611451610dfa565b5b61145e87828801610f17565b935050604085013567ffffffffffffffff81111561147f5761147e610dfa565b5b61148b87828801610f17565b925050606061149c87828801610f66565b91505092959194509250565b600081905092915050565b60006114be82611169565b6114c881856114a8565b93506114d8818560208601611185565b80840191505092915050565b6000819050919050565b6114ff6114fa82610f45565b6114e4565b82525050565b600061151182876114b3565b915061151d82866114b3565b915061152982856114b3565b915061153582846114ee565b60208201915081905095945050505050565b7f436572746966696361746520616c726561647920657869737473000000000000600082015250565b600061157d601a83611174565b915061158882611547565b602082019050919050565b600060208201905081810360008301526115ac81611570565b9050919050565b7f4e487b7100000000000000000000000000000000000000000000000000000000600052602260045260246000fd5b600060028204905060018216806115fa57607f821691505b60208210810361160d5761160c6115b3565b5b50919050565b60008190508160005260206000209050919050565b60006020601f8301049050919050565b600082821b905092915050565b6000600883026116757fffffffffffffffffffffffffffffffffffffffffffffffffffffffffffffffff82611638565b61167f8683611638565b95508019841693508086168417925050509392505050565b6000819050919050565b60006116bc6116b76116b284610f45565b611697565b610f45565b9050919050565b6000819050919050565b6116d6836116a1565b6116ea6116e2826116c3565b848454611645565b825550505050565b600090565b6116ff6116f2565b61170a8184846116cd565b505050565b5b8181101561172e576117236000826116f7565b600181019050611710565b5050565b601f8211156117735761174481611613565b61174d84611628565b8101602085101561175c578190505b61177061176885611628565b83018261170f565b50505b505050565b600082821c905092915050565b600061179660001984600802611778565b1980831691505092915050565b60006117af8383611785565b9150826002028217905092915050565b6117c882611169565b67ffffffffffffffff8111156117e1576117e0610e1a565b5b6117eb82546115e2565b6117f6828285611732565b600060209050601f8311600181146118295760008415611817578287015190505b61182185826117a3565b865550611889565b601f19841661183786611613565b60005b8281101561185f5784890151825560018201915060208501945060208101905061183a565b8683101561187c5784890151611878601f891682611785565b8355505b6001600288020188555050505b505050505050565b600061189d82846114b3565b915081905092915050565b7f436572746966696361746520646f6573206e6f74206578697374000000000000600082015250565b60006118de601a83611174565b91506118e9826118a8565b602082019050919050565b6000602082019050818103600083015261190d816118d1565b9050919050565b7f4e487b7100000000000000000000000000000000000000000000000000000000600052603260045260246000fdfea26469706673582212207e04d8c23fe3a00d4aabf6862376f1cf2b0aeb5d50a89e11367dad403c2f04d464736f6c634300081b0033",
  "linkReferences": {},
  "deployedLinkReferences": {}
}